S00E0000752D626F6F742E73726563C0
S31581700000B80000EA14F09FE514F09FE514F09FE5BF
S3158170001014F09FE514F09FE514F09FE514F09FE5C9
S3158170002060007081C0007081200170818001708153
S31581700030E001708140027081A0027081EFBEADDEF9
S31581700040DEC0AD0B0000A0E10000A0E10000A0E1E0
S315817000500000A0E10000A0E10000A0E10000A0E1A5
S3158170006028D01FE500E08DE500E04FE104E08DE5E5
S3158170007013D0A0E30DF069E10FE0A0E10EF0B0E1DD
S3158170008048D04DE2FF1F8DE850201FE50C0092E8A5
S3158170009048008DE234508DE20E10A0E10F0085E8A4
S315817000A00D00A0E1B1B900EB0000A0E10000A0E174
S315817000B00000A0E10000A0E10000A0E10000A0E145
S315817000C088D01FE500E08DE500E04FE104E08DE525
S315817000D013D0A0E30DF069E10FE0A0E10EF0B0E17D
S315817000E048D04DE2FF1F8DE8B0201FE50C0092E8E5
S315817000F048008DE234508DE20E10A0E10F0085E844
S315817001000D00A0E13DB900EB0000A0E10000A0E187
S315817001100000A0E10000A0E10000A0E10000A0E1E4
S31581700120E8D01FE500E08DE500E04FE104E08DE564
S3158170013013D0A0E30DF069E10FE0A0E10EF0B0E11C
S3158170014048D04DE2FF1F8DE810211FE50C0092E823
S3158170015048008DE234508DE20E10A0E10F0085E8E3
S315817001600D00A0E13DB900EB0000A0E10000A0E127
S315817001700000A0E10000A0E10000A0E10000A0E184
S3158170018048D11FE500E08DE500E04FE104E08DE5A3
S3158170019013D0A0E30DF069E10FE0A0E10EF0B0E1BC
S315817001A048D04DE2FF1F8DE870211FE50C0092E863
S315817001B048008DE234508DE20E10A0E10F0085E883
S315817001C00D00A0E1F1B800EB0000A0E10000A0E114
S315817001D00000A0E10000A0E10000A0E10000A0E124
S315817001E0A8D11FE500E08DE500E04FE104E08DE5E3
S315817001F013D0A0E30DF069E10FE0A0E10EF0B0E15C
S3158170020048D04DE2FF1F8DE8D0211FE50C0092E8A2
S3158170021048008DE234508DE20E10A0E10F0085E822
S315817002200D00A0E141B900EB0000A0E10000A0E162
S315817002300000A0E10000A0E10000A0E10000A0E1C3
S3158170024008D21FE500E08DE500E04FE104E08DE521
S3158170025013D0A0E30DF069E10FE0A0E10EF0B0E1FB
S3158170026048D04DE2FF1F8DE830221FE50C0092E8E1
S3158170027048008DE234508DE20E10A0E10F0085E8C2
S315817002800D00A0E121B900EB0000A0E10000A0E122
S315817002900000A0E10000A0E10000A0E10000A0E163
S315817002A068D21FE500E08DE500E04FE104E08DE561
S315817002B013D0A0E30DF069E10FE0A0E10EF0B0E19B
S315817002C048D04DE2FF1F8DE890221FE50C0092E821
S315817002D048008DE234508DE20E10A0E10F0085E862
S315817002E00D00A0E1E5B800EB160000EA00000FE111
S315817002F01F00C0E3D30080E300F029E1010000EB29
S315817003006E0000EB1EFF2FE10000A0E37AFF17EE6F
S31581700310FDFFFF1A170F08EE150F07EE100F11EE7E
S31581700320030CC0E38700C0E3020AC0E3020080E3E6
S31581700330010A80E3100F01EE0EC0A0E1530000EBBD
S315817003400CE0A0E10EF0A0E1E7FFFFEA10402DE995
S31581700350DEB800EB400300EB5D0300EB150000EBAC
S315817003600000A0E3170F07EE1080BDE80030A0E310
S315817003707EFF17EEFDFFFF1A9A3F07EE1EFF2FE1F4
S3158170038070402DE90040A0E10150A0E10E0300EB21
S31581700390000050E37080BD08050054E10200003A08
S315817003A00030A0E39A3F07EE7080BDE83E4F07EEBE
S315817003B0204084E2F7FFFFEA1EFF2FE180B44F46AB
S315817003C080B4054B012252425A61083200201A616B
S315817003D004BC914680BC7047000CC201104B30B58D
S315817003E0CE4600B598690F49C0432EF0E9F8494663
S315817003F0B4310A684B46B033824209D80A681C68A0
S31581700400821A12191A600860186804BC914630BD48
S315817004100C68054D1A6852191218121BF2E7C046FC
S31581700420000CC201C05D00000CBB020030B5CE4627
S3158170043000B50400FFF7D2FF001B04BC914630BDA6
S315817004400C4970B51823CE4606005E4300B58B699C
S315817004500125DB43002E02DC04BC914670BD8A699E
S31581700460D243934203D29B1A9E191300F2E7AC1AB8
S31581700470E318F9E7000CC2014B4608B5FFF7AEFFEA
S31581700480002104BC914600BDFA20800070470000AF
S3158170049018D09FE507D0CDE3C8D04DE207D0CDE324
S315817004A00D90A0E100502DE960B800EB0090BDE899
S315817004B0307F000000000000000000000000000096
S315817004C078009FE50700C0E300D0A0E123B800EB78
S315817004D000D0A0E10090A0E16CB800EB0000A0E331
S315817004E0A6B800EB440099E50700C0E300D0A0E10F
S315817004F0009099E5C89049E20CE08FE2480099E551
S3158170050000E08EE0340099E5210100EA160100EBE6
S315817005107BFFFFEB28009FE528309FE50010A0E365
S31581700520002053E00D0000EB04B800EB5FB800EBE0
S315817005300900A0E1341099E50CE09FE51EFF2FE1DB
S31581700540307F000080277681F4D979813DB27081C0
S3158170055000000000000000000000000000000000A4
S31581700560033010E200C0A0E11E00001A011481E17F
S31581700570011881E10130A0E1100052E30F0000BA49
S3158170058000412DE90180A0E101E0A0E1402052E225
S315817005900A41ACA80A41ACA80A41ACA80A41ACA8E8
S315817005A0F9FFFFCA0081BD08200012E30A41AC1829
S315817005B00A41AC18100012E30A41AC180041BDE83B
S315817005C0080012E30A00AC18040012E304108C14BC
S315817005D0020012E30110CC140110CC14010012E355
S315817005E00110CC141EFF2FE1042052E2F7FFFFBAEF
S315817005F0020053E30110CCB40110CCD40110CCE4C9
S31581700600032082E0D8FFFFEA010050E10EF0A001DD
S3158170061011402DE9042052E22B0000BA03C010E28A
S3158170062000F0D1F53000001A03C011E23A00001AC9
S315817006301C2052E2E0012DE90C0000BA00F0D1F5E0
S31581700640602052E21CF0D1F5020000BA3CF0D1F57F
S315817006505CF0D1F57CF0D1F5F851B1E8202052E209
S31581700660F851A0E8FAFFFFAA600072E3F9FFFFAACA
S315817006701CC012E220C06CE20CF08F10110000EAEF
S315817006800000A0E1043091E4044091E4045091E4C7
S31581700690046091E4047091E4048091E404E091E44F
S315817006A00CF08FE00000A0E10000A0E1043080E44E
S315817006B0044080E4045080E4046080E4047080E443
S315817006C0048080E404E080E4E001BDE8822FB0E13B
S315817006D00130D1140140D12401C0D1240130C0141C
S315817006E00140C02401C0C0241180BDE804C06CE201
S315817006F002005CE30130D1C40140D1A401E0D1E4B0
S315817007000130C0C40140C0A40C2052E001E0C0E4B5
S31581700710EDFFFFBA03C011E2C4FFFF0A0310C1E304
S3158170072002005CE304E091E42C00000A570000CAE1
S315817007301C2052E21F0000BAE0032DE900F0D1F5CA
S31581700740602052E21CF0D1F5020000BA3CF0D1F57E
S315817007505CF0D1F57CF0D1F5F000B1E82E34A0E1F2
S31581700760202052E20053B1E8043C83E12444A0E1A5
S31581700770054C84E12554A0E1065C85E12664A0E1FF
S31581700780076C86E12774A0E1087C87E12884A0E163
S31581700790098C88E12994A0E10C9C89E12CC4A0E1A3
S315817007A00ECC8CE1F813A0E8E9FFFFAA600072E332
S315817007B0E8FFFFAAE003BDE81CC012E20500000A4B
S315817007C02E34A0E104E091E404C05CE20E3C83E146
S315817007D0043080E4F9FFFFCA031041E2BAFFFFEAF1
S315817007E01C2052E21F0000BAE0032DE900F0D1F51A
S315817007F0602052E21CF0D1F5020000BA3CF0D1F5CE
S315817008005CF0D1F57CF0D1F5F000B1E82E38A0E13D
S31581700810202052E20053B1E8043883E12448A0E1F4
S31581700820054884E12558A0E1065885E12668A0E14E
S31581700830076886E12778A0E1087887E12888A0E1B2
S31581700840098888E12998A0E10C9889E12CC8A0E1F2
S315817008500EC88CE1F813A0E8E9FFFFAA600072E385
S31581700860E8FFFFAAE003BDE81CC012E20500000A9A
S315817008702E38A0E104E091E404C05CE20E3883E195
S31581700880043080E4F9FFFFCA021041E28EFFFFEA6D
S315817008901C2052E21F0000BAE0032DE900F0D1F569
S315817008A0602052E21CF0D1F5020000BA3CF0D1F51D
S315817008B05CF0D1F57CF0D1F5F000B1E82E3CA0E189
S315817008C0202052E20053B1E8043483E1244CA0E144
S315817008D0054484E1255CA0E1065485E1266CA0E19E
S315817008E0076486E1277CA0E1087487E1288CA0E102
S315817008F0098488E1299CA0E10C9489E12CCCA0E142
S315817009000EC48CE1F813A0E8E9FFFFAA600072E3D8
S31581700910E8FFFFAAE003BDE81CC012E20500000AE9
S315817009202E3CA0E104E091E404C05CE20E3483E1E4
S31581700930043080E4F9FFFFCA011041E262FFFFEAE9
S315817009400DC0A0E1F05F80E80000A0E31EFF2FE1FB
S31581700950F05F90E80CD0A0E10100A0E1000050E3C7
S315817009600000001A0100A0E31EFF2FE1340099E513
S31581700970102F11EE022A12E20010A00364109F1547
S31581700980FC05B0E8FC05A1E8FC05B0E8FC05A1E82A
S315817009901EFF2FE150109FE5014050E01000000AC4
S315817009A048209FE5000CB1E8000CA0E8020051E1F7
S315817009B0FBFFFF3A38209FE538309FE50300B2E8A8
S315817009C0FF1001E2170051E30300001A040080E072
S315817009D0001090E5041081E0001080E5030052E17B
S315817009E0F5FFFF3A1EFF2FE10000FFFF00007081C7
S315817009F08027768180277681E0B376814B461A6827
S31581700A0008B5936C84B00093D26C002301930292E3
S31581700A10039302AA013369460BF0E6FB04B004BC6A
S31581700A20914600BD4B4608B56946074BC9184B467A
S31581700A301A681B68926CDB6CD218521A24F0EBF828
S31581700A4004BC914600BDC04600F0FFFF70470000B0
S31581700A504B461B6870B5CE4600B5050083B01B6CDE
S31581700A60066E1D480C00019308F0B2FD002809D06E
S31581700A7001AA10212AF058F8002824DB0199174819
S31581700A8029F070FF80239B000F201C4008F05FFEC9
S31581700A901349002C00D11349134829F063FFAB2009
S31581700AA008F055FEFFF7D2FFC020C00014F0D8FDC4
S31581700AB02DF0AEFD2B6F002B09D0EA6E002C02D182
S31581700AC001992000B04703B004BC914670BD4B4676
S31581700AD01B685A6CF2E7C0460E19738115197381BA
S31581700AE0F7187381EED973813A1973817047000053
S31581700AF0F0B5CE4600B5060082B0404808F068FD74
S31581700B00336F0700002B09D0300010F012FC0028DB
S31581700B104AD03B4829F026FF28F0E8FE4A461268FB
S31581700B20384D546C384A6260A3600522E360236154
S31581700B3023001433226068462B6000F0FBFD334B33
S31581700B40A36104236361009BE361019B236223009C
S31581700B5024332B604B461B68002F2AD14846026886
S31581700B602B682B495960916CD26CD9609A60716F80
S31581700B701A00042410321C602A60002932D0B26FA8
S31581700B80002A2FD00068234858611C61521A9961D6
S31581700B90DA6120332B602800FFF7A8FF00224B46CD
S31581700BA01B682B685A601A6002B004BC9146F0BD0E
S31581700BB001373B78202BFBD0002BCFD0164BA3620D
S31581700BC0380028F04DFF2B6839000D308008186089
S31581700BD00833180028F0E6FE2B681A6892009B1875
S31581700BE02B60BBE7716E0029D5D0B26E002AD2D048
S31581700BF000680848586104201861C7E7CB3A738149
S31581700C0053197381802776810100415406004154BE
S31581700C10020041540500425409004154F0B5CE4654
S31581700C20C02400B505001E0004401CD180277F00BA
S31581700C30074006D01800FFF75BFF200004BC914681
S31581700C40F0BDC024E400044005D001001800FFF710
S31581700C50FFFE3C00F1E71800FFF74AFF29003000DC
S31581700C60FFF7F6FEE9E701246442E6E730B5040052
S31581700C70C06ECE4600B500280CD0094926F011FF0A
S31581700C80002807DAE06EFFF7B9FE002802D0054822
S31581700C900EF0AEFF2DF0BCFC04BC914630BDC04653
S31581700CA0731973817B1973814A4604B5036EC06E5D
S31581700CB0984704BC914600BD30B5841D431DE47FC1
S31581700CC0DB7F24021C43C31DDB7F194D1B041C4330
S31581700CD003000833DB7F1B0623430124AB4225D1F6
S31581700CE0040003002934247828331B7824021C439A
S31581700CF003002A331B781B041C4303002B331B7898
S31581700D001B0623430B60010003002D3109782C33B8
S31581700D101B780902194303002E331B782F301B046D
S31581700D201943037800241B060B431360200030BDE2
S31581700D3018286F0180B44F467A6C80B43A647A6CA5
S31581700D400020103A7A6404BC914680BC70470000DA
S31581700D5080B44F463B6C044A083380B400201360DC
S31581700D6004BC914680BC70474000708170470020FA
S31581700D70704700004B4608B5014829F068FEC046A9
S31581700D8092137381F0B5CE4600B5A2B002AD040060
S31581700D9080222F4928002DF00BFCA26BE16B2D4828
S31581700DA0266C29F0DFFD370F3F074B465A68D2070D
S31581700DB008D5996C9A6CA36B27489A1AE36B591A62
S31581700DC029F0D0FDE36A226B616B244829F0CAFD54
S31581700DD0236A626AA16A224829F0C4FD2369009355
S31581700DE0A2696369E1691F4829F0BCFD2368009394
S31581700DF0E1686368A2681C4829F0B4FD4E21002F12
S31581700E0000DB20315A22730000D420324323B00094
S31581700E1000D420335620F60000D420300090134839
S31581700E2029F0A0FD236C12491A0600D51149104A82
S31581700E30580600D50F4A1F2003409B000E4800902C
S31581700E400E48EB5829F08EFD22B004BC9146F0BD58
S31581700E5088E872812E8A7381288A7381508A738118
S31581700E60748A7381988A7381C88A7381F88A7381C7
S31581700E7099D0738160347381EED97381088B738154
S31581700E8030B5CE4600B504001FF0CCFD054829F07B
S31581700E9069FDE36B2000043BE363FFF773FFFFF7A4
S31581700EA069FFC046B954738130B5CE4600B504002A
S31581700EB01FF0B8FD054829F055FDE36B2000043B12
S31581700EC0E363FFF75FFFFFF755FFC046F751738105
S31581700ED030B5CE4600B504001FF0A4FD054829F053
S31581700EE041FDE36B2000083BE363FFF74BFFFFF7A0
S31581700EF041FFC0462A51738130B5CE4600B5040094
S31581700F001FF090FD054829F02DFDE36B2000083B0D
S31581700F10E363FFF737FFFFF72DFFC046D93B738138
S31581700F2030B5CE4600B504001FF07CFD054829F02A
S31581700F3019FDE36B2000083BE363FFF723FFFFF79F
S31581700F4019FFC046C550738130B5CE4600B50400D1
S31581700F501FF068FD054829F005FDE36B2000083B0D
S31581700F60E363FFF70FFFFFF705FFC04622447381E6
S31581700F7030B5CE4600B504001FF054FD054829F002
S31581700F80F1FCE36B2000083BE363FFF7FBFEFFF7A1
S31581700F90F1FEC046274473817047000010B507483B
S31581700FA00EF026FE064828F047FEFFF7E0FEFFF7B3
S31581700FB0F3FF002000F0DEF8002010BDB35173817D
S31581700FC050C30000011080E0ECFCFFEA013080E143
S31581700FD01F0013E30600000A0120A0E110402DE9ED
S31581700FE00010A0E110009FE5C0B500EB0000A0E302
S31581700FF01080BDE80100A0E31EFF2FE1621C7381A2
S315817010001EFF2FE11EFF2FE1C03099E5001A81E1A5
S31581701010031B81E3001183E71EFF2FE110402DE949
S31581701020004099E5804184E0482094E5222AA0E138
S315817010304C3094E5481094E5233AA0E1213A83E057
S31581701040020053E11080BD980200A0E11E10A0E35A
S31581701050ECFFFFEB012082E2F4FFFFEA103F11EE15
S31581701060103F11EE013AC3E3103F01EE1EFF2FE1EF
S3158170107010402DE9104F11EE014014E21000001A54
S31581701080DEFFFFEB0400A0E11210A0E3014084E2D1
S31581701090DCFFFFEB010A54E3F9FFFF1A0000A0E3BE
S315817010A0DDFFFFEBC03099E5103F02EE0030E0E3E3
S315817010B0103F03EED2FFFFEB103F11EE013083E359
S315817010C0103F01EE103F11EE043083E3103F01EEC5
S315817010D01080BDE8103F11EE040013E31EFF2F014F
S315817010E010402DE9104F11EE9FFCFFEB0540C4E3D4
S315817010F0104F01EE1080BDE8100F11EE2001A0E1B6
S31581701100010000E21EFF2FE14B4608B500F049F859
S31581701110FFF754F90521802000F078F805218120A8
S3158170112000F074F80121812000F0B4F800F0A0FA83
S3158170113004BC914600BD00004B4608B508220A4999
S31581701140042028F004FD00280BD12823197803295F
S3158170115004D8064B585C04BC914600BD044829F0FE
S3158170116076FC0C20F7E7C0461ED67381320F7381E9
S3158170117027D67381494602B4034B01225A619A611B
S31581701180024A1A61FEE7C046A00CC201AF14000084
S315817011904B4608B52DF0A4FA04BC914600BD704744
S315817011A0704710B500F088F9FFF7FAFF002010BD7F
S315817011B010B502480EF01CFD002010BD8884738125
S315817011C0064B1B680360064B1B684360054B1B68A7
S315817011D08360054B1B68C360002070470038C2016D
S315817011E00438C2010838C2010C38C20110B58C00AE
S315817011F0C906890F890041181C231C400F200B6872
S31581701200A0408343A24013430B6010BD70B5242365
S3158170121045090A0019006943054B0400C8180A2D4F
S3158170122001D8044BC8182100FFF7E0FF70BDC04696
S31581701230742AF0010008C201CB069B0F9B00C0186F
S3158170124000681C2389001940C8400D3B18407047BF
S3158170125070B51E234509C4064000184006331E002A
S315817012606E430A4BE40FF2180A2D01D8084BF21817
S315817012701300A40014331B191A6803248440814017
S31581701280A2430A4300201A6070BDC046742AF001D9
S315817012900008C20170B51E234509C4064000184076
S315817012A006331E006E430A4BE40FF2180A2D01D8DD
S315817012B0084BF2181300A4001C331B191A680324F7
S315817012C084408140A2430A4300201A6070BDC046A3
S315817012D0742AF0010008C20110B50378502B0DD124
S315817012E04378413B1A06120E192A07D802300A2210
S315817012F000215C0129F039FC201810BD0120404283
S31581701300FBE70000F0B587B005900598394A0493DC
S3158170131027F098FA0400051E68DB00252A000598D7
S315817013200095354B21000AF0CBFD0200A84254D0BE
S3158170133003950A2809DD01230393142805DDDB183B
S3158170134003931E2801DD01330393059800232B4AED
S31581701350210026F0B3FA0126051E18D105982B00B7
S31581701360274A210026F0AAFA2E0000280FD1254A95
S3158170137005982B00210026F0A1FA0236021E06D1AD
S3158170138005980092204B21000AF09AFD06000025EF
S315817013900023009305982B001C4A210026F060FCDF
S315817013A0002809D1059F00902B00194A2100380029
S315817013B026F056FC002819D0FFF78EFF071E0ADB30
S315817013C00499FFF723FF03993800FFF741FF310036
S315817013D03800FFF75FFF0135DAE70423009305983C
S315817013E00C4B21000AF06CFD0390AEE7280007B024
S315817013F0F0BDC0463FD6738149D6738168D67381F5
S3158170140075D6738182D6738191D67381A0D6738195
S31581701410F0A0738158D6738130B5214DCE4600B513
S31581701420280018F00BFF1F4C606000281EDA280018
S3158170143018F004FFA060002826DA280018F0FEFE56
S31581701440E06000280DDB184918F02FFC002818D1B0
S31581701450E06818F071FC002813D10121E068FFF76C
S3158170146019FF124B00201A681A600AE0104918F0A9
S315817014701CFC002805D10100606818F077FC0028F3
S31581701480D5D004BC914630BD0A4918F00EFC0028AF
S31581701490F7D1A06818F050FC0028CED0F1E7C0468D
S315817014A0EED973811CEA7381C5D77381CC00C20171
S315817014B0AFD77381B8D773810B4B0C4A1A60802270
S315817014C0520519681142FCD009490A4BC62292010C
S315817014D01A6080230A685B031A430A60064A116898
S315817014E00B4313607047C0462800C20100180490F0
S315817014F06800C2015400C201D002C20110B50A4C03
S31581701500002804D123685B005B08236010BD0749FE
S315817015102DF056F8FE23DB01013800021840044B8A
S3158170152018432060F2E7C0461000C201C0C62D0084
S3158170153007000081074B1B68D8049B06C00E9B0F62
S31581701540421C013310005843034B02005A4310006A
S315817015507047C0462800C20100366E01F8B5050095
S315817015600F00FFF7E7FF01244600210030002CF0C1
S31581701570FFFFB84207D80F23013C1C4082231B060C
S315817015801C432C60F8BD0134EFE70000F0B5CE4600
S3158170159000B592B011220021060005AD0DA82DF07F
S315817015A027F82800FFF70CFE041E48D1059B002BF7
S315817015B045D00C2206A928F03DF9030243D0E86094
S315817015C002272649220009A829F0C0F909A9300005
S315817015D026F073FA00281DD0002C39D1204909A82C
S315817015E028F0E0F909A807F0F3FF002812D123014A
S315817015F003A93B430B702B684B70AB891A021B0A8C
S315817016001A43EB688A80180E88701B0C09A8CB70F8
S315817016102AF05AFC0134042CD3D1124C200007F0E5
S31581701620D7FF00280BD1EB6800931121059B0E4AD9
S315817016300DA829F076F90DA9200007F075FE12B074
S3158170164004BC9146F0BD80231B040343EB60B7E76E
S315817016502200064909A829F079F9C3E7BC89738103
S31581701660C7897381D9897381E1897381CF8973813F
S31581701670704700004B46F0B51B68154DCE46154A2E
S3158170168000B528005A6418F0D9FD1349FA26B600B8
S31581701690040018F00AFB2000012118F067FBF6247C
S315817016A0FF34013C002C0ED1280018F0C7FD0B4980
S315817016B0050018F0FAFA2800012118F057FB20006E
S315817016C004BC9146F0BD300028F0B6FAE9E7C04611
S315817016D0EED9738100010080471673814F1673812D
S315817016E080204A46000604B5010010F0BBF84B46CF
S315817016F09863002004BC914600BD30B5CE46A024C7
S31581701700022500B520002900FFF780FD0121200008
S31581701710FFF7C0FD200029000134FFF799FDA62C43
S31581701720F0D1002016F006FD43425841404204BC78
S31581701730914630BD30B5CE4600B50400074807F0F6
S3158170174047FF002808D01022002129F039FA6160FC
S31581701750206004BC914630BD6060F9E7D989738198
S3158170176070B5284ECE4600B5002185B0300007F0A1
S31581701770DBFD254D0021280007F0D6FD234C002185
S31581701780200007F0D1FDFFF7D7FC0C282FD1204917
S31581701790300007F0C9FD03221E49142028F0D7F9BD
S315817017A0002806D1C27D022A0DD002211A4829F05D
S315817017B0D9F84B46186EFFF7E9FEFFF72DFE05B097
S315817017C004BC914670BD81690029F2D0C269002A34
S315817017D009D0012303900290019000930F48093339
S315817017E027F048FDE5E7280007F0CEFDE1E70C49D3
S315817017F0012802D00228DCD10549200007F094FD2A
S31581701800D7E7C046D6767381E1767381F076738138
S3158170181029DA7381FC76738100777381D41376812B
S31581701820831373814B4608B5FFF7B0FE002004BC65
S31581701830914600BD10B5030008001100984710BD90
S3158170184070B514001D00012A17DD58681022002119
S3158170185029F038F901000600094829F083F8611EDC
S315817018602A1D3000FFF7E6FF040001000548631E5C
S315817018709C4129F077F8200070BD01246442FAE713
S31581701880634473818B447381F0B5CE4600B51C0079
S3158170189088B0531E0493231D0593531E06000F00B3
S315817018A01500002B34DD102207A9606829F00AF92A
S315817018B0079B1B78002B2BD03A2B29D0232B27D033
S315817018C009221849606810F011FA2300AA1E08339C
S315817018D000280DD0C168144801290FD0CC070ED4C9
S315817018E004008C342468A14209DC104829F03AF846
S315817018F00120404208B004BC9146F0BD0721002406
S315817019000294019000913900300009F079FDF1E778
S3158170191001230293044B0193054B0093049A059B13
S31581701920F1E7C046E8ED7381DC317681C436738127
S315817019301F07000030B5CE4600B50C00044807F08D
S3158170194047FE210010F026F904BC914630BDC04691
S31581701950AC34738130B5CE46010000B504002048A1
S3158170196029F000F820000FF067FB0500012832D1BD
S315817019701C480EF03DF92368FF20190E1A060A439A
S315817019800004190201400A43FF211B0A09020B4018
S315817019901343154A1548934205D120000FF014F967
S315817019A0002806D112480EF023F9280004BC91460E
S315817019B030BD20000FF066FA0E480EF019F920003E
S315817019C00FF027F9002801D10B48ECE70B480EF090
S315817019D00FF90025E9E70A480EF00AF90125E4E7CF
S315817019E03D6D73815E6D738156190527756D738132
S315817019F08A6D7381A26D7381BD6D7381CE6D7381B5
S31581701A00D26D7381F0B5CE4600B5012A08DC0E4BD6
S31581701A101868FFF79FFF0600300004BC9146F0BD41
S31581701A2092001C1D9D180026012710220021206816
S31581701A3029F048F8FFF78EFF002800D03E00043465
S31581701A40AC42F2D1E8E7C046C403748170B5CE4624
S31581701A5000B5050083B00F480E0007F0B9FD002868
S31581701A6004D1002003B004BC914670BD0A4927F0A9
S31581701A70CDFF041EF5D1094B01901968084800966F
S31581701A8028F070FF6B46012221002800FFF7FCFECB
S31581701A90E8E7C046DC1B7381E61B7381C4037481DE
S31581701AA0EA1B7381F7B50500074C0848084E241A5E
S31581701AB0A7103C007443019300920B002A00210009
S31581701AC010F07CF9FEBDC0467C1E7681F415768158
S31581701AD0B76DDBB600B5B3B0C8226946002027F072
S31581701AE049FD28F03FFF04480EF082F803480EF056
S31581701AF07FF8002033B000BD46577381725773816A
S31581701B00F0B5050087B010000C0016001F0014F0A8
S31581701B1073FB0390032D00D969E028002CF018FE21
S31581701B202B2B023803226349606827F07CFF051EE0
S31581701B3005D1300014F0AAFB280007B0F0BD03224E
S31581701B405D49606827F06FFF00280DD139683000D4
S31581701B5014F0BEFB002801D10025EDE703995748A3
S31581701B6028F000FF0125E7E704225549606827F0D0
S31581701B705AFF051E02D001256D42DDE7300014F053
S31581701B8042FB0028E8D003994C4828F0EBFED3E756
S31581701B9049490322606827F046FF011E0FD10A2248
S31581701BA0A06828F08FFF01000400300014F0ACFBB0
S31581701BB0051ED7D13C60434828F0D4FEBCE7404926
S31581701BC00422606827F02FFF011ED4D1A0680A22F3
S31581701BD028F078FF04000100300014F03EFB0028E5
S31581701BE0BAD022000399384828F0BCFEBAE7374943
S31581701BF0606827F00BFF051E2DD101001022A068A9
S31581701C0028F060FF290010220590E06828F05AFFBD
S31581701C10290010220490206928F054FF049B3A68A9
S31581701C200399050000902A4828F09CFE059B009335
S31581701C30049A2B003968300014F0DAFB254A0400C7
S31581701C40854200D0244A254821002D1B28F08AFE22
S31581701C506B1E9D4170E72249606827F0D7FE051E8D
S31581701C6089D101001022A06828F02CFF290010224A
S31581701C700590E06828F026FF2900102204902069DB
S31581701C8028F020FF049B3A68039905000090154857
S31581701C9028F068FE059B0093049A2B003968300002
S31581701CA014F0BEFB0B4A0400854200D00A4A21001B
S31581701CB00D48CAE7C5137381CB8E7381C91373813E
S31581701CC06BBB7381E3137381FE137381B8AE7381BA
S31581701CD01B147381BC137381BF1373814B1473810E
S31581701CE0EA977381601473819114738170B505005D
S31581701CF028481AF0D3FA060028000FF09DF90400DF
S31581701D00012842D12B68FF20190E1A060A43000456
S31581701D10190201400A43FF211B0A09020B40134332
S31581701D201D4A1E48934205D128000EF04DFF0028AA
S31581701D3004D11B480DF05CFF200070BD002E06D0CB
S31581701D4028000EF066FF002801D11648F2E7AB7FB6
S31581701D501548062BEED12B6C28001A0E1906FF2515
S31581701D6011432D041A022A401143FF221B0A1202C3
S31581701D7013404030194301D10C48DBE704C8002A6F
S31581701D80FCD10FF013FF0400D6E709480DF030FF40
S31581701D900124D1E74E8B738156190527558B738133
S31581701DA0678B7381778B7381858B7381958B738148
S31581701DB0A38B738110B5012A0EDD1022002158681C
S31581701DC028F080FE04002100054828F0CBFD002113
S31581701DD02000FFF78BFF10BD81242406F3E7C046F0
S31581701DE00B5273814B4608B50A000100024828F0F0
S31581701DF0B9FD04BC914600BDFF8473814B4630B5F5
S31581701E001C68CE4600B5216C2648FFF7EBFF616CE6
S31581701E102548FFF7E7FFE36C002B0BD000212348A1
S31581701E20FFF7E0FFA16C2248FFF7DCFFE16C2148E8
S31581701E30FFF7D8FF4B4699681F4828F093FD1F48D6
S31581701E404B46C0331968FFF7CDFF1D484B46596B1A
S31581701E50FFF7C8FF1B484B46996CFFF7C3FF1A48BB
S31581701E604B46196CFFF7BEFF18484B46596CFFF706
S31581701E70B9FF17484B46D969FFF7B4FF8022D20064
S31581701E8014484B46A033196828F06CFD4B461A6E80
S31581701E90002A03D0196E104828F064FD002004BC16
S31581701EA0914630BDFE3373810A34738116347381E2
S31581701EB020347381293473813134738147347381CA
S31581701EC0503473815A347381643473816B34738102
S31581701ED0753473817F3473819D34738149460A4B1E
S31581701EE002B501221A7020F0D5F821F0F5FF22F0A3
S31581701EF0D1F922F0A9FA21F0C7FE1FF052FD1FF029
S31581701F0051FD04BC914600BD8C277681F0B5CE46D5
S31581701F1000B5FAB007900F0015000021682214A849
S31581701F201E002CF065FB142200210FA82CF060FB9B
S31581701F301022AC490BA82CF03BFB98225200002151
S31581701F402EA800242CF054FBA5420FD12C00002E14
S31581701F500CD1A54828F006FD00220023300000929E
S31581701F60019321F025F80500040006009F4B1B782C
S31581701F70002B11D033002A000FA914A81FF004FC7E
S31581701F801EF046FD002F0AD1994828F0EBFC0021FE
S31581701F900BA81FF08FFBAAE0FFF7A0FFEAE73800D6
S31581701FA024F0D8FC0028EFD17B68FF251A06190E1C
S31581701FB011432D041A022A400A43FF2109021B0A82
S31581701FC00B401A434B4615001A681B680600DB6C7A
S31581701FD0916C002B01D101214942864A0023521905
S31581701FE0734104920593049B80201A0B1303029309
S31581701FF0029A059B0393000500251B05160B0A188B
S31581702000029803991E432B0012184B41089209932B
S31581702010042108AB3200012020F02CFAA84223D08B
S315817020208020029940010EF011FD08AB3200042127
S3158170203009950890012020F01DFAA84214D06E48A7
S3158170204028F090FC00231A0029002EA80FF084FB3B
S31581702050061E2AD0694828F085FC16246442200021
S315817020607AB004BC9146F0BD7968FF200A0E0B06E2
S31581702070134300040A020240FF261343089D0A0A8D
S31581702080360232401A43390028002CF091FA029BAD
S31581702090FF271B023F041F40029B1B0A1E40029BA7
S315817020A03E431B0E33436B60CCE729000BA81FF0B0
S315817020B001FB6B68280B1A0E1F061743FF22190244
S315817020C012040A40FF2109021B0A0B403A431A4344
S315817020D04B4B0003ED182D1A01235219120B0193E4
S315817020E00333009302323300310020F099F845486A
S315817020F007F06EFA00231B931A930600984257D104
S3158170210014A907981EF0C4F90690002867D0002C90
S315817021102FD020AB1B7806AA237169239B181B7855
S3158170212063716A239B181B78A3716B239B181C9A06
S315817021301B78100A6072100C0021A072100EE37168
S31581702140E0720B0021736173A173E1731E981F99FD
S31581702150227212184B41110A22746174110C120E7B
S31581702160E2741A0A237562751A0C1B0EA174A27514
S31581702170E3752549254807F0D7F824A82CF0E0FAAD
S31581702180239C00280FD1069B139D002B25D02049B7
S315817021902800984704001E4B2100DB6B28009E6F38
S315817021A000231A00B047109B0F9A53601A6056E746
S315817021B027F056FC0221451C28000EF079FA1B90F7
S315817021C0002803D1134828F0CDFB99E72A00310006
S315817021D06D0022F0CFF91A9592E70F4CDBE7022456
S315817021E06442E0E7E80E7381313573818C2776819D
S315817021F0C9357381FF1F00007B357381A335738168
S31581702200FF0F0000CB3A7381123673813236738138
S3158170221018267681FC35738101000080F0B5CE4633
S3158170222000B5160082B01D00012A4FDD2949586814
S3158170223027F0ECFB00282FD10400022E05D0010077
S315817022401022A86828F03EFC0400234B1B78002BD3
S3158170225001D1FFF743FE1EF0DBFB01A9684621F031
S3158170226061FC05000120002D12D029001B4828F041
S3158170227079FB019B009A21002800FFF747FE4100F8
S3158170228004004908164828F06DFB2000441EA041C1
S3158170229002B004BC9146F0BD10220021686828F016
S315817022A011FC00240700022E05D021001022A86897
S315817022B028F008FC040039000A4828F053FB0A4BC1
S315817022C00A4A1B68126821003800D6E7012040420D
S315817022D0DEE7C046B43473818C277681BC347381D2
S315817022E0E334738107357381882776818427768174
S315817022F0F0B5CE4600B588B005000F0014000021F8
S31581702300202268462CF074F92449280027F07EFB38
S3158170231000283CD00A220021380028F026FC0100D2
S31581702320280010F0C9FB061E2DD03A21380027F0FF
S315817023308BFB0021884204D00130102228F0C2FB29
S315817023400100300020F072FD154B1860002C1AD0F8
S315817023501249280027F05AFB2300124A002800D020
S31581702360114A2021684628F0DCFA5C246B462F21BD
S31581702370180027F069FB00280CD16A46010020F00D
S315817023808DFD0A4B186008B004BC9146F0BD20F0F3
S31581702390DFFDD9E7431C0470E9E7C046EC5B7381C6
S315817023A084277681D94C7381D669738188277681A2
S315817023B0F0B589B0551E1F1D0593214C01230293DB
S315817023C0009301943B002A0004900E0009F018F8DE
S315817023D0002D0CD11B4B1B68236607AA06A9206E9C
S315817023E0FEF76AFC00280AD0012009B0F0BD059B72
S315817023F010220021586828F065FB2066EDE7079B5F
S31581702400069A216E9A1A104822F005FC3A00290024
S31581702410300008F03BFF0028E6D108F0E5FF230085
S315817024205E3305221A7001230293E223DB00009347
S3158170243001943B002A003100049808F0E1FFD4E74B
S31581702440DC317681C40374816C327681F7B50FF095
S315817024507DFA060015480DF0CBFB3468B44201D184
S315817024600020FEBD2700443F3A68210001203C3997
S315817024704923024200D11B3B4F20950700D4213856
S3158170248000900B4828F06EFA00250A4B5B59BB42C7
S3158170249004D1094B0948595928F064FA04350C2D31
S315817024A0F3D10A200DF086FB2468D7E7AD3B7381A3
S315817024B0C93B7381348E7681C80374818F1D738114
S315817024C0F7B501273E0000920193009BB34206DC6B
S315817024D0002F02D00A200DF06DFB0020FEBD019AFF
S315817024E0B300D558012E02DD20200DF063FB0F4914
S315817024F0280027F042FB041E13D000232370280086
S315817025000DF076FBA51C5C2323700849280027F003
S3158170251034FB041EF1D128000DF06AFB27000136C9
S31581702520D3E728000DF064FBF9E7C046E53B73817C
S31581702530F8B50500002602272B8E9E4201DBA8691D
S31581702540F8BD2B6AEC1828237343E418A3683B42C1
S315817025500FD0E06800280CD06269002A09D06368C0
S31581702560082B08D100212CF043F86169E0682CF0C2
S31581702570A7F80136E0E72369E9182CF019F8F4E732
S3158170258010B5074B0268010006489A4204D10B8A3E
S315817025900120022B03D0044828F0E4F9002010BDF5
S315817025A07F454C46DCE4738100E57381F0B5404824
S315817025B087B01E00170007F00BF87B1E0093351D40
S315817025C00290002B48DD746823782D2B42D1637875
S315817025D0702B01D0732B3DD1BB1E3500009308350E
S315817025E0002B3ADD05AA1021286828F09DFA16304D
S315817025F033D0009B0435013B00930598FFF7C0FFEC
S315817026000126002823D0059E002C44D06378702B38
S3158170261041D1F3690027F3180393039B7C01E41876
S31581702620B38D9F421DDBB3690593029B002B37D116
S315817026300599204828F096F92900059B00989847B6
S31581702640060001001C48731E9E4128F08BF93000EC
S3158170265007B0F0BD0024C5E70024184B1B680593AD
S31581702660CBE72269E3680193002A04D063680198F5
S31581702670F1182BF09DFF20696269904205D0019B0C
S31581702680121A002118182BF0B3FF216901982CF0CA
S3158170269017F80137C1E73000FFF74AFF0590C4E7A5
S315817026A00749029827F0B2F9061EC1D1CFE7C04615
S315817026B0DC1B7381723673819A367381C40374811C
S315817026C0C1367381F0B51600A3B01D00012A24DCD2
S315817026D0784B1C6878480DF08BFA784806F078FF4D
S315817026E0002832D1764828F03DF92000FFF748FF5F
S315817026F0002800D1D9E02000FFF71AFF04002100DD
S31581702700704828F02FF92BF03BFF0020A0476E48C8
S315817027100DF06EFA012023B0F0BD102200215868A9
S3158170272028F0D0F90400022ED4D16849686827F060
S315817027306DF90028CED1033029F022FE0028E9DD1B
S315817027402100634828F00EF9C4E71022002128F091
S31581702750B9F905005F4806F03BFF061E19D027F0D0
S315817027607FF90200FF2800D2FF22310028002BF06A
S315817027701FFF300027F074F90100FF2800D2FF2176
S3158170278028002BF09DFF2A002900534828F0EAF88B
S31581702790ABE7524806F01CFF061E79D0010002A8ED
S315817027A027F000F9300027F05BF906004C4806F0F7
S315817027B00FFF02AB0200F018002A6DD0494928F04C
S315817027C0C5F83618484806F003FF021E25D002ABBD
S315817027D0F018464928F0BAF8454F3618380006F091
S315817027E0F7FE02AAB3180193002859D0380006F073
S315817027F0EFFE22F08BFAFF210904020E03061343C2
S3158170280002020A401343020AFF20000202401A4361
S315817028103849019828F09AF83618374806F0D8FE64
S31581702820021E05D002ABF018344928F08FF836189D
S31581702830334806F0CDFE021E05D002ABF018314941
S3158170284028F084F83618304806F0C2FE021E05D08C
S3158170285002ABF0182D4928F079F836182C4806F015
S31581702860B7FE071E07D002ABF018390027F09AF829
S31581702870380027F0F5F802A827F0F2F80200FF2851
S3158170288000D2FF2202A928002BF092FE02A871E7DE
S31581702890204828F067F889E71F4928F057F890E7AC
S315817028A01E49019828F052F8B6E71D480DF0A0F937
S315817028B025E7C046C4037481D6397381043A73811E
S315817028C00D3A73811B3B73813F3B73819939738158
S315817028D09E397381CB3A7381D43A7381F4767381DD
S315817028E05E3A7381673A73817E3A7381853A738171
S315817028F08A3A7381923A7381993A7381A23A7381D2
S31581702900A83A7381B23A7381B83A7381C13A738145
S31581702910C83A7381383A7381703A7381297D73812C
S31581702920F53A738110B50020012A04DD01000A226F
S31581702930586828F0C7F802235B42181A10BD13B580
S31581702940022400941AF0E0FC16BD13B5022400949B
S315817029501AF0FEFC16BD13B5022400941AF0B4FD6C
S3158170296016BD13B5022400941AF0F2FC16BD13B588
S31581702970022400941AF0A8FD16BD13B501240094A3
S315817029801AF0C2FC16BD13B5012400941AF0E0FC4E
S3158170299016BD13B5012400941AF096FD16BD00007C
S315817029A0F0B51D00A3B0012A06DC114827F0DAFFC5
S315817029B00024200023B0F0BD0124009404AB03AA47
S315817029C0A968686810F070FA061EF2DB039804A98C
S315817029D047681DF06DF9002806D033003A006968A2
S315817029E0044827F0BFFFE4E71DF0AAF90400E0E789
S315817029F0C83D7381F33D7381F0B51D00A9B0002385
S31581702A0005920793042A05DC0FF0B8F904002000BB
S31581702A1029B0F0BD012700970AAB07AAA968686833
S31581702A2010F042FA3C00061EF1DB07980AA943684A
S31581702A3004931DF03DF9041E07D03300049A69682A
S31581702A40174827F08FFF0124E1E701001022E8681B
S31581702A5028F038F8059B07002000052B04D010223A
S31581702A602100686928F02EF808AB02930023009044
S31581702A70019300220023390028691DF025FC002866
S31581702A8007DA0096049B6A682969064827F06AFF07
S31581702A90D9E7089A099B044827F064FFB7E7C046CF
S31581702AA01E3E73814A3E7381753E7381F0B50568AA
S31581702AB0CE4600B50400002D06D1274827F052FF77
S31581702AC0280004BC9146F0BD280023F043FF060020
S31581702AD00120002EF5DA300024F02AF901001F4812
S31581702AE027F040FF0A3631D16B69FF201A0E19061D
S31581702AF0114300041A0202401143FF221B0A12027B
S31581702B00134019430F2903D81022154827F02AFF3D
S31581702B10AA69FF26110E13060B4336041102FF2094
S31581702B203140120A00020B4302401A43112A0DD911
S31581702B306B691A0E190611431A0216401B0A034055
S31581702B40314319431122074827F00CFF064827F0B5
S31581702B5009FF00202060B4E7F66473812165738173
S31581702B603F657381576573813280738110B5002992
S31581702B701FD04318013B1B78002B01D00A2B07D13C
S31581702B800D4A48240378002B0FD0D35CA34309D117
S31581702B9000210EE001290CD04378002BF8D001304A
S31581702BA00139EFE70029FADCF2E70029F2DC4B42C2
S31581702BB05941080010BDC04610117381F0B5CE46DB
S31581702BC000B5050082B00F1E0DD0FFF7CFFF041E32
S31581702BD020D0344E002430000DF00AF8BC4206DB5A
S31581702BE030000DF005F802B004BC9146F0BD002CA2
S31581702BF002DD2D480CF0FCFF28000CF0F9FF28004F
S31581702C0026F02EFF01342418280026F029FF013082
S31581702C102D18E3E7032637422FD1402F05DD3A0081
S31581702C202900224827F09EFEDDE7214827F09AFE8B
S31581702C30FB171E40F619B610FF27731E3F020193CC
S31581702C40B44203DB1B4827F08DFECCE7A300EB581B
S31581702C50FF201A0E1906114300041A0202401B0A3C
S31581702C6011433B401943019B134A9C4200DB134A33
S31581702C70134827F077FE0134E2E7402FCFDC114805
S31581702C8027F070FEA74201DC0F48DCE77B1E295DC9
S31581702C90094A9C4200DB094A0C4827F063FE0134DD
S31581702CA0F0E7C046AE847381AB847381B0847381DF
S31581702CB0DAA17381EFA17381297D7381EED97381D5
S31581702CC0C0847381C984738115BB7381CB8473818D
S31581702CD0054B4A4604B501001860044806F054FB5A
S31581702CE004BC914600BDC046902B7681B4897381B0
S31581702CF0F0B5CE4600B5170096B01D00012A02DCEC
S31581702D00012464425EE00222C549586826F08BFE32
S31581702D10041E00D06DE0BE1E002E01D100F0C4FDF0
S31581702D20C049A86826F072FE002850D1FE1E002E7A
S31581702D302FD00C35012710220021286827F0C2FE7A
S31581702D4002900A900AA8FFF7B1FE002828D0002FBA
S31581702D5040D04B460A9A1A66012E33D01022002132
S31581702D60686827F0AFFEFF26360401000A9843682B
S31581702D701D0E1A062A431D0235402A43FF251B0A5A
S31581702D802D022B401A43914228D2A74827F0EAFD9B
S31581702D9018E04B461B6E01260A930A9B002B01D1C4
S31581702DA001240FE00AA8FFF781FE0028F8D00A995E
S31581702DB0002E04D131009D4806F036FC01009C48F6
S31581702DC027F0D0FD200016B004BC9146F0BD0835C1
S31581702DD02700B0E70298FFF77BFFBDE70A00010085
S31581702DE025F07AFB0028EDD023F0A2FF01009148EF
S31581702DF0E6E7914E3368002B03D190480CF0F8FECC
S31581702E00CEE702228E49686826F00DFE0290002870
S31581702E1050D1032F00DC73E701001022A86827F0D8
S31581702E2051FE012430603000FFF740FE0028C9D082
S31581702E3010220299E86827F045FE0490042F1CD170
S31581702E403368FF20596800040A0E0B0613430A0281
S31581702E5002401343FF22090A120211400B431A00E2
S31581702E600499306825F038FB041E20D023F060FF6A
S31581702E700100704827F076FD92E710220299286941
S31581702E8027F020FE326855682A0E2F020100030052
S31581702E9028061043FF2212043A4010432A0AFF255E
S31581702EA02D022A4002439142D9D266486EE7049B2D
S31581702EB0336087E702226449686826F0B4FD00288A
S31581702EC01CD1032F00DC1BE7A9683068EC6824F0FD
S31581702ED0E8FD002804DA23F02BFF01005B48C9E77F
S31581702EE001002200306825F0C5FA002801DB002434
S31581702EF068E723F01DFF01005548BBE768680378D2
S31581702F00732B00D0E8E0032F00DCF9E6EB68A96843
S31581702F103068079324F0C5FD02900028DBDB042F0F
S31581702F2016D1002308934448089B0093079A494B0E
S31581702F300299006825F014FA0024A04200DB41E76B
S31581702F4023F0F6FE01340100434827F00BFD39E783
S31581702F5008AB079A0299306824F0E9FC089A8023B5
S31581702F60DB0001009A4202DD11003C4882E7394C50
S31581702F70002802D020002BF01BFB3B1F04932B698A
S31581702F80002708970A931A782E0010363C2A3CD16E
S31581702F9001330A930A9D29783E29C4D0049BBB428A
S31581702FA001DC2F4866E7002903D10137BB009B59A5
S31581702FB0EFE700220AA9280027F084FD2B783F2BA2
S31581702FC018D0020E0306FF211343090402020A4038
S31581702FD01343FF22000A1202104018432060089B97
S31581702FE00434043308930A9B5B1B002B08DC29008D
S31581702FF01C483FE70A9B01330A93F0E701330A9332
S315817030000A9B1A78202AF9D0C4E73D005B2A4FD1F2
S31581703010013344270A930A9B1B785D2B26D137E0AF
S31581703020A5527381783F73819D3F7381B489738112
S315817030307B3F7381CC3F7381902B7681E83F73811F
S31581703040584073815B4073818E40738191407381E7
S31581703050B74073819027768137417381D54073816B
S315817030601C417381FB40738101300A900A98037801
S31581703070202BF9D0002B07D10135AB009B590A93D0
S31581703080049BAB42C7DC03E0B94AD35C3B4205D1B2
S315817030900A9B19785D2900D145E782E710220AA932
S315817030A027F010FD089B0133089320700134E7E700
S315817030B00A9826F0D5FC0A990135471C200026F01E
S315817030C071FC089BE419DF19AB00F3580A93049BD2
S315817030D00897AB42ECDC26E7672B00D0C2E0002371
S315817030E00893042F00DC0BE6AB680493052F03D19C
S315817030F01B78732B00D003E6EB68029329696B69A1
S315817031003068079324F0CDFC041E01DA2000E2E6D4
S31581703110049B1B786E2B03D0732B4AD1052F48D114
S315817031202100306824F061FD21000AAA0A90070007
S31581703130306823F01DFD049B1B7804006E2B30D103
S3158170314010220021686927F0BDFC079001256D4228
S315817031500A9ABA421CDD7B1C9B1A5A425341ED185E
S31581703160049B1B786E2B0CD1079B9D4209D1210044
S315817031700022306824F0F7FA0100029806F0D4F83C
S31581703180B5E621000AAA306823F0F2FC041EDFDA64
S31581703190049B1B78732B08D1691C029806F0E6F89C
S315817031A0A5E601235B420793D0E7724827F0DAFBE5
S315817031B0F6E52100306808AB079A24F0B8FB089DC4
S315817031C06D490600002DD8D0002845D0002D43DDED
S315817031D0049B1B78762B30D12900FFF7C7FC310011
S315817031E0041ECAD1042D16D13368FF20190E1A0612
S315817031F00A430004190201400A43FF2109021B0A8E
S315817032000B401A435D490AA827F0A0FB0AA90298C8
S3158170321006F08AF8D6E5AB070DD1142D0BDC0700C5
S3158170322078000AABF259C0185549043727F08EFBDE
S31581703230BD42F5DCEAE75348B8E7612B06D15249BE
S3158170324002000AA827F082FB0AA996E7732B00D0A1
S3158170325056E52A004949F4E7280023F069FD010003
S315817032604A4807E6702B26D06C2B00D0F8E06B3B72
S315817032700493022F21D0AB68079300230293032F07
S3158170328001D0EB6802930799306824F00AFC041E1A
S3158170329000DA3BE7029B002B25D001000AAB029A2C
S315817032A0306824F044FB0A9C0500002C09D1029AEF
S315817032B0079937486AE52023DAE7364B0793002367
S315817032C0E0E700280DD0002C0BDD0299324827F0FB
S315817032D049FB0A992800FFF771FC304827F042FBB9
S315817032E005E62000B9E7029D20272D4E210008AA08
S315817032F0306823F0BEFB01000138082800D9A9E0A7
S315817033002BF0A6F9090025005C00A100A800A80091
S31581703310A800A8004EFD00222100306824F023FA0F
S31581703320049B0200AB420BDB00280ED00378002B86
S3158170333000D11C4A1C497B1BC9181C4827F012FBFB
S3158170334001351F2D10DD1A4830E71A4AF2E7049BC2
S31581703350013DAB4208DB14497B1BC918164827F01F
S3158170336001FB002D00D1C2E5089C6B1CBDD1BEE569
S315817033701011738151417381EED973816841738163
S31581703380AF7A73816F417381894173818E41738104
S3158170339015E3738141F97381DB4173813280738166
S315817033A0902B7681763F738143F97381A8417381BE
S315817033B0B04173815F3F7381CC41738121000C224F
S315817033C0306823F00FFB836804001A0E1906FF20FC
S315817033D0114300041A0202401143FF2212021B0A92
S315817033E013401943306824F0EBF86168FF260B06A9
S315817033F036040200080E0343080230400343080A6C
S31581703400FF210902084018430A9000D525E7049BDD
S3158170341008D1AB42A8DBD4497B1BC918D34827F0A6
S31581703420A1FAA1E7AB429FDBCF497B1BC918D04874
S3158170343027F098FA20000C300A99FFF7BFFBCD4828
S3158170344027F090FA90E7C8497B1BC918CA4827F0BC
S3158170345089FA89E7049BAB4200DAA1E4C74809E59A
S315817034600222C74926F0DFFA00281ED1A968306882
S3158170347024F017FB011E00DA2DE53068032F0ADD73
S31581703480EA6824F082FF041E00DB30E523F050FCED
S315817034900100BC4894E424F0FBFF041E00DB26E5A2
S315817034A023F046FC0100B8488AE468680378682B83
S315817034B000D09EE03268FF2553692D04190E1F06D0
S315817034C00F43FF241902240229401B0A0F4323400C
S315817034D01F431368AD481A0E190611431A022A4002
S315817034E01B0A11432340194327F03CFA3368A848D5
S315817034F05B681A0E190611431A022A401B0A234069
S31581703500114319430A0027F02DFA3368A1489B6845
S315817035101A0E190611431A022A401B0A11432340B7
S31581703520194327F01FFA33689B48DB681A0E190610
S3158170353011431A022A401B0A11432340194327F06B
S3158170354011FA336895481B691A0E190611431A02C6
S315817035502A401B0A11432340194327F003FA390085
S315817035608F4827F0FFF933688E489B691A0E1906C2
S3158170357011431A022A401B0A11432340194327F02B
S31581703580F1F9012F2DD933688748DB691A0E19062F
S3158170359011431A022A401B0A11432340194327F00B
S315817035A0E1F9022F1DD0336880481B6A1A0E1906FD
S315817035B011431A022A401B0A11432340194327F0EB
S315817035C0D1F9102F0DD9336879485B6A1A0E1906AD
S315817035D011431A0215401B0A29431C40214327F0C7
S315817035E0C1F9306824F048F80100724827F0BAF9B9
S315817035F073E60322704926F016FA041E15D101006E
S315817036001022A86827F05EFAFF252D043268010E14
S3158170361003060B43010229400B43FF21000A09026D
S3158170362008401843D061FFF7CDFB02226349686871
S3158170363026F0F9F90290002817D110220100A868A6
S3158170364027F0BEFA1022049005910299E86827F056
S31581703650B7FA049A059B00900191306808F09AFE3A
S31581703660041E00DD43E4FFF7ADFB0222544968680E
S3158170367026F0D9F9041E61D1AB681B78702B27D1DE
S31581703680306823F0F9FF270005004E4827F06AF964
S315817036904D4827F067F9AF4200DB28E40AAB08AAE8
S315817036A03900306823F09EFF041E05DA23F040FB53
S315817036B001004648FFF784FB0A9B01930B9B00939D
S315817036C03900089B099A424827F04CF90137E2E79D
S315817036D0612B1CD110220100E86827F071FA102243
S315817036E0029003912100286927F06AFA029A039B56
S315817036F000900191306824F061FD041E01DBFFF7B3
S31581703700F6FB23F015FB01003248FFF759FB642B5A
S3158170371001D0FFF7F5FA01001022E86827F0D2F997
S315817037200100306824F0ADFD041E01DBFFF7DFFB7D
S3158170373023F0FEFA01002848FFF742FB032227494E
S31581703740686826F070F900284CD14B461968306844
S31581703750FEF768F8002801D1FFF7C9FB23F0E8FA74
S3158170376001001F48FFF786FB43F97381D24173814C
S31581703770D9417381D6417381E1417381EE41738100
S31581703780BEB47381024273811D42738139427381E2
S31581703790484273815F427381754273818C427381B2
S315817037A0A3427381B1427381C8427381DF4273814F
S315817037B0F64273810D4373812443738129327381F8
S315817037C0284373812B437381464373817843738115
S315817037D097437381B1437381D0437381EF4373810F
S315817037E0F343738103223349686826F01CF9041EFA
S315817037F01ED1022F19D0042F01D0FFF781FA010053
S315817038001022A86827F05EF9102221000700E86867
S3158170381027F058F90500306808F084FC2A003900D1
S31581703820306808F0D9FBFFF7CDFA05000700F2E79B
S3158170383021490222686826F0F6F8011E1ED1032FEF
S3158170384001D0FFF75DFA3368002B01D1FFF7A8FA33
S315817038501022A86827F036F90A900AA8FFF726F988
S31581703860002801D1FFF79CFA0A99306808F048FF61
S31581703870041E01D1FFF7A6FAFFF792FA02220F49C9
S31581703880686826F0D0F8041E01D0FFF739FA010076
S31581703890022F04D01022A86827F014F9010030682D
S315817038A008F008FEFFF78EFA054B1B680A93FFF73F
S315817038B074FAC046F2477381338C7381A9A173817F
S315817038C0902B768113B50024009419F01DFD16BDD9
S315817038D0F7B506000F0015001C005868022A0FDD27
S315817038E09968094A042D00DD1A69FEF701FD0023E6
S315817038F000932A0039003000230019F029FDFEBD9E
S3158170390001490A00F1E7C046EED9738113B50024E7
S31581703910009419F00FFE16BD13B50024009419F0AA
S31581703920D3FD16BD10B519F07FFE10BDF0B5CE462C
S3158170393000B596B001920E000022019905001C0017
S3158170394016F0F7FA002829DB2368DA0701D40228F2
S3158170395020D09A0712D5002E10D004273B4205D06D
S315817039600A200CF027F92368BB43236031000D4888
S3158170397026F0F8FF226802239A432260502302AA16
S315817039800199280016F0E8FA002807D1064802A99D
S3158170399026F0E8FF16B004BC9146F0BD01000348DD
S315817039A0F6E7C046456A7381F3837381741D7381AB
S315817039B0F0B5CE4600B586B0019016001D00012A7D
S315817039C002DC0124644226E05C68022A2DD07749A4
S315817039D0986826F01BF8002822D0083500262F68B3
S315817039E002227349200026F01EF800286BD10490BC
S315817039F0002F04D03B785A1E93415B421F4003A926
S31581703A00142012F047F8039A002A14D10100019804
S31581703A100EF050FC0400200006B004BC9146F0BD47
S31581703A200C35032E04D00126D9E700263700D7E757
S31581703A3001260700D4E7049B0221002E00D00321C2
S31581703A400B43100005A9049316F067FA059B0500D0
S31581703A50002B03D103A812F032F8D4E7002813D0D3
S31581703A6025F0FEFF0400002F2BD0020029003800BC
S31581703A7025F0D9FF002808D0049A02231A42E9D189
S31581703A80DB1813430493E5E704003819002F18D027
S31581703A900478002C11D00A22002127F013F804AB88
S31581703AA0290002000398FFF741FFE5E7220004AB86
S31581703AB029000398FFF73AFF0134059B9C42F5DB99
S31581703AC0DAE70024F9E7002F00D17AE72378692BAA
S31581703AD018D011D80225632B00D072E7002205AB6E
S31581703AE01100380016F05CF8041E0FD03900314889
S31581703AF026F038FF21008AE7732B05D00325742BB6
S31581703B00ECD05EE70025E9E70125E7E72A490598C4
S31581703B1016F0CBF81022030010330190934304D032
S31581703B200599264826F01EFF4BE70598244E002DF1
S31581703B3024D116F001F9059816F0E0F904003900E0
S31581703B40059A204826F00EFF21001F48B44229D8D5
S31581703B501E4826F007FF002D08D0059816F0CEF97D
S31581703B600100B0421BD91A4826F0FCFE019B103326
S31581703B7000D150E7059816F0CFF84CE7022D09D0A1
S31581703B800124032D06D116F0B9F90400B04201D88B
S31581703B9063425C412100059816F0E8F8CFE78442CC
S31581703BA0E4D00C4826F0DEFEE0E7C0461CBB73818C
S31581703BB0ECA97381B2447381C8447381D144738192
S31581703BC000F0FFFFF144738112457381AD427381B9
S31581703BD0244573815045738110B503780C002A2B67
S31581703BE012D101301022002126F06CFF0300022CC5
S31581703BF006D0042C06D00020012C00D1187810BD77
S31581703C000088FCE70068FAE71022002126F05AFF47
S31581703C10032CF4D80123E4005B42A3409843EEE77A
S31581703C2010B503782A2B05D101301022002126F098
S31581703C3049FF10BD242BFCD143787B2B0ED10230EA
S31581703C40020013787D2B04D10023137005F0C0FC1C
S31581703C50EFE70132002BF4D11800EAE70020E8E79C
S31581703C60F0B585B00700029103921E0025F0F8FE2B
S31581703C70384D0190019A2968380025F0D4FE041ECA
S31581703C805DD1286825F0ECFE019B834257D16F6820
S31581703C90002E27D10298FFF7C3FF05000398FFF71F
S31581703CA0BFFF0100280025F0B1FE0300052F07D85C
S31581703CB038002AF04DFD03080C0E12155C425C41EA
S31581703CC0200005B0F0BD1C00631E9C41F8E7DC0F37
S31581703CD0F6E7DC17E41AE40FF2E75C1E1C43FAE799
S31581703CE0DC43F8E731000298FFF776FF3100050073
S31581703CF00398FFF771FF0300052FE1D838002AF08A
S31581703D0027FD03070B101419ED1A6C426C41D7E726
S31581703D10EC1A651EAC41D3E701249D42D0DB0024A9
S31581703D20CEE701249D42CBDCF9E7EC0FDA17AB4283
S31581703D305441C5E7EC17DA0F9D425441C0E7054BF4
S31581703D40083568339D4200D094E73900024826F0E1
S31581703D5009FEE4E7D8F27281A513738110B51C0050
S31581703D60042A1BD1186811000EF036FA030002304E
S31581703D7006280ED82AF0ECFC040D0D05050D0500FC
S31581703D800023E2686168A068FFF76AFF4342584181
S31581703D9010BD04480BF02CFF0020F7E7012040424C
S31581703DA0F6E7C04694477381034B00221A60034B32
S31581703DB01A68034B1A607047D42B7681AC2B768147
S31581703DC0C42B7681064B1A68064B1A60064B1A68A5
S31581703DD0064B1A60064B1A68064B1A607047C046C6
S31581703DE0BC2B7681C02B7681D42B7681D82B76812C
S31581703DF0C42B7681C82B7681064B1A68064B1A605E
S31581703E00064B1A68064B1A60064B1A68064B1A607F
S31581703E107047C046C02B7681BC2B7681D82B768134
S31581703E20D42B7681C82B7681C42B76814B4608B587
S31581703E300BF08EFF002804D00BF064FF04BC914612
S31581703E4000BD01204042F9E7F0B5224CCE4600B55F
S31581703E50A54402910600694601A80EF003FC00256F
S31581703E600400A8422DD18027FF006A46390004A834
S31581703E700EF0CCFC021E1DDC68460EF0B1FD1649B3
S31581703E8000200EF0D3FD21001F231F31994330008E
S31581703E902AF016FC22002100104826F063FD2100CD
S31581703EA00F4805F071FA30008223DB009D4404BC13
S31581703EB09146F0BDA81904A9A418AD182AF078FB0B
S31581703EC0D3E700980EF0EAFD2C000100054826F034
S31581703ED049FDD1E7F0FBFFFF2D3E708148757381F7
S31581703EE070757381F3837381044B1B68002B04D1C6
S31581703EF0034A1368591C116018707047D42B7681E8
S31581703F00C42B7681074B002201331978002905D19C
S31581703F101006800F80183F2318407047013352185E
S31581703F20F3E7C046942B76810B4B30B51C68CE4631
S31581703F3000B5002C06DC094C2078002808D104BC19
S31581703F40914630BD064B013C18780BF033FEF0E795
S31581703F5001340BF02FFEEFE7B42B7681942B7681AB
S31581703F60B12B7681F0B54A4CCE46012600B5002339
S31581703F70A544764205900493039348AC0BF0C2FE38
S31581703F80444B1B68070605003F0E002B02D0380094
S31581703F900BF010FEFF231D40032D6BD059DC002DD5
S31581703FA068D04B462770DA6E3B4B52689A4269D11C
S31581703FB00134C9AB9C42E1D1882004AA8121400099
S31581703FC000238900121853544CE00138082818D8F8
S31581703FD02AF0BEFB05050517171728282800079AAA
S31581703FE0059B08A99C182000069A2AF0E1FAA64238
S31581703FF000D92600069B013B1C19039BA34200D264
S315817040000394244B1B68002BB7D1049B6421013325
S31581704010180004932AF074FB0029AED12E200BF080
S31581704020C9FDAAE71D4825F007FE039B039A5C1C10
S31581704030A41B230031000094194826F093FC2100BB
S3158170404030002AF03DFB2100164805F09DF907984E
S3158170405012E00A2D01D00D2DA3D10023237048AB18
S31581704060E41A07D408AB07AA06A948A80EF056F930
S315817040700028AADA01204042CA239B009D4404BCD1
S315817040809146F0BD0BF086FE002800D190E7F1E7EE
S31581704090D8FCFFFF64F9738105FD708110270000DC
S315817040A0E374738170757381F0B5CE4600B51E4821
S315817040B01C00150005F08CFA031E03D00378313B82
S315817040C05A425341194A00261360022D05D1310097
S315817040D01022606826F049FD0600154826F042FCDC
S315817040E03000FFF73FFFFA266424B60005000BF017
S315817040F02FFE002801D00BF005FE3000013C25F023
S315817041009BFD002CF3D16B1C06D10A4826F02AFC44
S31581704110012004BC9146F0BD2900074826F022FC97
S31581704120064B20001D60F4E7EB47738164F9738158
S31581704130F64773811A48738138487381C4037481D1
S31581704140F0B5CE4600B5BA4888B014001D0005F0AA
S315817041503FFA00285DD01022002126F0B3FC019031
S315817041604B469B6803930293012C27DD1022002115
S31581704170686826F0A7FC039B02930190032C1DD1DE
S315817041800A220021A86826F09DFC0290002844D05E
S31581704190039B834212D00100A64826F0E3FBA64812
S315817041A025F04AFD029A4B469A6016F002FFA248A4
S315817041B025F042FD0BF0A6FD0D28FBD19F4928689D
S315817041C025F024FC041E2BD10199029A9C4826F075
S315817041D0C9FB02210198FFF737FE039B029A93422E
S315817041E012D01900974826F0BDFB934825F024FD1F
S315817041F0039A4B469A6016F0DCFE8F4825F01CFDBB
S315817042000BF080FD1B28FBD1200008B004BC9146C1
S31581704210F0BD81231B060193A2E7039B0293CDE731
S315817042208949286825F0F2FB029A0199041E04D106
S31581704230864826F097FB0121CCE7854826F092FBCC
S31581704240844B019A1A60844B844A1A60844B854ADE
S315817042501A60854B0D221A70844B00241C60844B26
S3158170426016321C70834B1A70834B1C60FFF79CFD52
S31581704270FFF7A8FD01235B42059407937F4B804A24
S315817042801A600BF03FFD012803D00328F9D1002570
S315817042909FE10BF037FDE0240500204200D191E0CB
S315817042A00BF030FD204200D18CE0FF2318400200D4
S315817042B0203A06921A4005921300079A0600934295
S315817042C044D1FFF799FD0BF01DFDE02304001842E0
S315817042D078D0FF273D40AE19203D38403D40821948
S315817042E0023D0492AA1C2DD10BF00CFDE023060031
S315817042F0184267D00BF006FDE0230500184261D0A5
S315817043000BF000FDE02318425CD0049A2B003E40EE
S315817043103B409219D2181106890F8D183F21294079
S31581704320203105062D0E8D424CD1203E310039400B
S315817043305F250E006E43203B1D003D400740BB1834
S31581704340751904932406240EFF2623E0FFF73AFDA0
S31581704350059B0793B7E70BF0D5FCE02103001A00A4
S315817043600006000E32400B422CD0049B013D9B18F7
S315817043700493442C50D1404B1A68002A42D0384B52
S315817043801A6860230340402B35D1984390473A4B46
S3158170439000221A60012DDEDC0BF0B4FCE02318429A
S315817043A010D0049B00061F06BF0FFF183F231F40C6
S315817043B02037000EB84205D10BF0A4FC0006000E22
S315817043C00D2861D0FFF718FD2E4C012323702233FF
S315817043D06370059B00252033A3704E23E37025718E
S315817043E0FFF790FD204BA5711B786371203020718A
S315817043F0FFF79AFD42E77F2303403F2BC6D10133F6
S315817044001843C3E71B4A1278824201D10122C0E761
S31581704410134B1B689847BDE7532CBBD1174B184973
S315817044201A681431571C1F6010708F42B2D3B0E76F
S31581704430564873815F48738150C300009148738178
S31581704440974873817F497381D6487381DC487381BC
S315817044501B497381AC2B7681D02B7681A93D708176
S31581704460CC2B7681E93E7081B02B7681B42B7681A7
S31581704470B12B7681B82B7681BC2B7681F02B7681A8
S31581704480DC2B7681942B7681069920310906090E6B
S31581704490532C00D081E0654B654A187000231360F8
S315817044A0644A65481370654B23221A70644B020007
S315817044B01C681332944202D1020012321A601B6850
S315817044C003241B1A002B4BDD5E4D7E222A7101342B
S315817044D0012B45D05D3A6A710134022B40D08278C6
S315817044E0534C203A1206120E22602022AA7106249B
S315817044F0032B35D0C27860201040402846D1824344
S315817045004C48072402704F4A4020D071042B27D023
S31581704510494D464C2879203820702D2010720824F8
S31581704520052B1DD045486C7904702320507209245F
S31581704530062B15D02B3090720134072B10D027346F
S31581704540D472263C082B0BD010730134092B07D0FB
S3158170455022235373023B937304345E33D373137480
S31581704560384D01232B70230020336B70671C5923C0
S315817045700026EB70A970EE55FFF7C4FC2B4B2C19F6
S315817045801B782030E855A370E67031E77F201040A4
S315817045903F28B5D101300243B2E72A4D01232B70F2
S315817045A022336B7000263633EB70A9702E71FFF74C
S315817045B0A9FC1E4BAE711B786B7120302871FFF789
S315817045C0B3FC422C00D059E61F4B1D681F4B1B68EC
S315817045D0ED1AFA266424B6000BF0BAFB002801D0D6
S315817045E00BF090FB3000013C25F026FB002CF3D1BB
S315817045F0290001982AF064F82A002900144826F0C7
S31581704600B1F92900134804F0BFFE019B124D0133A5
S3158170461005D112482C6026F0A5F90134DDE50199A2
S315817046200F4826F09FF9019B2B60D6E5B02B7681DA
S31581704630B42B7681B12B7681DC2B7681B82B768102
S31581704640F02B7681942B7681C42B7681AC2B7681F7
S315817046504875738170757381C40374815A49738186
S3158170466038487381F0B5CE4600B584B003921F0089
S31581704670012A3EDD204B01241B68214002930E1EC8
S315817046801DD01E4B1C681E4B1D682900102029F0F9
S315817046906FFF029E029B6E432A00210000902000CC
S315817046A024F0EAFF154BA4191C60134B029A1A6009
S315817046B0134B00201D6004B004BC9146F0BD0421EB
S315817046C038680DF089FD05002000002DF3DB10227E
S315817046D03100786826F0F6F90A4B1C68039B041939
S315817046E0022BD2D010223100B86826F0EBF90290F5
S315817046F0CBE701204042DEE768F97381F82B76813A
S31581704700FC2B7681F42B768130B5CE4600B5084C7C
S31581704710012A05DD10220021586826F0D3F9206020
S315817047202168044826F01EF9002004BC914630BDEC
S31581704730F42B7681AF497381F0B5CE461E00130096
S3158170474000B5033B82B00092012B32D804213068C8
S315817047500DF042FD0124051E1BDD102200217068BB
S3158170476026F0B0F9144B10221B680021C318B0686B
S31581704770019326F0A7F9009B07002000042B04D132
S3158170478010220021F06826F09DF9019B013805D22F
S315817047900024200002B004BC9146F0BD042D02D1E4
S315817047A01F605B19F2E7022D01D11F80F9E71F7037
S315817047B0F7E701246442ECE7F42B7681F0B5CE46B7
S315817047C000B51E00022A36DD042118680DF004FD3D
S315817047D0051E35DB10220021706826F073F91022D0
S315817047E000210400B06826F06DF9012809D1042DE5
S315817047F001D12368FDE7022D01D12388FDE7237856
S31581704800FDE7042D06D123000200002AFBD0013A70
S3158170481002CBFAE72218022D07D122000300002B62
S31581704820FBD01188013B0232F9E723009342FCD019
S3158170483019780133FAE70120404204BC9146F0BDF4
S315817048400120FAE7F0B5CE4600B51F0088B0042A7C
S315817048505AD1110018680DF0BFFC0126041E43DB86
S315817048602B4D082806D02B4D042803D02A4D0228BB
S3158170487000D02A4D10220021786826F023F9284E1F
S31581704880102233680021C318B868079326F01AF985
S315817048903668102200218619F86826F013F9079B6D
S315817048A00027F11A8C46020061465818BA4201D126
S315817048B0002614E0042C1CD119680068814220D02E
S315817048C0079A04909B1AD218F31802930091039455
S315817048D0019523002900134826F044F801262A0001
S315817048E03900114826F03EF8300008B004BC914674
S315817048F0F0BD022C02D119880088DFE7197800781B
S31581704900DCE71B190137CFE701267642ECE7C04613
S31581704910CF497381D6497381C6497381DB49738166
S31581704920F42B7681E0497381124A7381F0B5CE4654
S31581704930012500B5060082B017000D401ED02B4BA5
S315817049401D682B4B1C6829002A48270026F00AF817
S31581704950042C24D12968284826F004F827480BF0BE
S315817049603FF8002806D0264F012820D13B782D2B81
S315817049701DD16742002EE6D0ED19E4E70421106857
S315817049800DF02AFC04000120002C2ADB290010225C
S31581704990786826F097F81B4B1D684519D3E7022C6A
S315817049A002D129881848D7E729781848D4E7102280
S315817049B001A9380026F086F8019BBB420CD0042CE5
S315817049C004D12860002EBED02D19BCE7022C01D1EE
S315817049D02880F7E72870F5E7044B00201D60044BAB
S315817049E01C6002B004BC9146F0BDC046002C768135
S315817049F0042C7681A77A7381AE7A7381C07A73813A
S31581704A0028397681F42B7681B47A7381BA7A7381F7
S31581704A1090B5CE4600B5022A06D11A000120FFF75D
S31581704A2085FF04BC914690BD01204042F9E70000A4
S31581704A30F0B5CE4600B51C0084B0042A32D111007F
S31581704A4018680DF0C9FB0125061E19DB102200219D
S31581704A50606826F037F8154F10223B680021029363
S31581704A600190A06826F02EF8102200213F680390ED
S31581704A70E06826F027F8002807D10D480BF0B8F8C2
S31581704A80280004B004BC9146F0BD020072430298BE
S31581704A90019B844663441900039B0025D81929F02C
S31581704AA087FDEDE701256D42EAE7C046F42B7681F5
S31581704AB0344A738190B5CE4600B5022A06D11A0062
S31581704AC00020FFF733FF04BC914690BD0120404220
S31581704AD0F9E737B50D00140001A9102225F0F2FF10
S31581704AE0019B0006000E28701A782D2A05D1581C54
S31581704AF01D3A0021019025F0E5FF207037BD000039
S31581704B00F0B515009BB01C00012A04DC01277F4299
S31581704B1038001BB0F0BDCD4B16AF1A783A705B7802
S31581704B207B70122610ABF618C94B10AA1B683370AE
S31581704B30C84B10A81B68D374C74B1A6815AB1A700B
S31581704B40C64B1A6815231B181A70C54B1A681A2317
S31581704B501B181A80C34B186803041B0C0693012318
S31581704B601940059133D1636860681B783B7024F076
S31581704B7077FF059B012801D963685B787B70022D6D
S31581704B8025D010AA13239B181A003100A068FFF74D
S31581704B90A0FF032D1BD0152210ABD21815A9E06882
S31581704BA0FFF797FF042D08DD10220021206925F07B
S31581704BB089FF1A2310AA9B181880052D07DD1022EC
S31581704BC00021606925F07EFF03041B0C069310ABF0
S31581704BD0DB7C1F2B03D9A44825F0C4FE96E707F02A
S31581704BE013FE3B780590692B68D1022D2BD010ABC3
S31581704BF03478DD7CAC4229D90027944B16AA11787A
S31581704C00197052785A7010AA12239B181A78904B81
S31581704C101A6010AA13239B181A788E4B1A6015ABDB
S31581704C201A788D4B1A6010AA15239B181A788B4B9C
S31581704C301A6010AA1A239B181A88894B1A60894B95
S31581704C40069A1A6064E71F250024D3E710AB1627EE
S31581704C501726F618FF1800963B0017AA21000598AB
S31581704C6007F03AFE002825D1179B07933B78089366
S31581704C70210033780598099307F062FE21000700B9
S31581704C80059807F0EFFE794E002800D1784E210005
S31581704C90059807F09FFE774B2C2800D0764B0393AF
S31581704CA0099B009302960197089B079A2100734886
S31581704CB025F058FE01342406240E9BE7722B53D1BE
S31581704CC03478002715AB1D7810AA13239B181B788F
S31581704CD0A34217D291E710AB1A26F61801235B42CD
S31581704CE033802A0033002100059807F097FD00284C
S31581704CF021D02A002100624825F034FE0127013532
S31581704D002D062D0E10AB5B7DAB42E4D210A912221B
S31581704D105218117810A8132212181278914206D05F
S31581704D2015AA12789A4202D0564825F01BFE013494
S31581704D302406240EC6E710AA12239B181A7810A986
S31581704D4013235B181B789A4204D115AB1A784B7D65
S31581704D509A4204D02A0021004B4825F003FE3188FF
S31581704D604A4825F0FFFDCAE7772B29D13478002789
S31581704D70012615AB1D7810AA13239B181B78A342A5
S31581704D8010D23AE72A002100059807F060FD0028C5
S31581704D9005D02A0021003E4825F0E4FD3700013513
S31581704DA02D062D0E10AA1A239B1810A9152252189A
S31581704DB012781B88AA42E5D201342406240ED8E7DC
S31581704DC06D2B6FD13478002715AB1D7810AA1323FC
S31581704DD09B181B78A3421AD20FE717AE0023338034
S31581704DE02A0033002100059807F018FD002818D095
S31581704DF0284825F0B7FD2100274825F0B3FD290005
S31581704E00264825F0AFFD012701352D062D0E152378
S31581704E1010AA9B181B78AB42DFD201342406240E6C
S31581704E20D2E73388069A10A993431A2252181288A8
S31581704E30069905980A40134321002A00338007F0AA
S31581704E4006FD0028E0D01648D3E7C046182C768137
S31581704E500C2C7681082C7681202C76811C2C76817F
S31581704E60102C7681142C7681784A73819A5273814B
S31581704E70724A7381454A7381494A7381A54A73819E
S31581704E80EC4A7381328073811B4B7381344B73818E
S31581704E903A4B7381674B7381824B7381104B7381EC
S31581704EA08D4B738102228C49380024F0BCFD002819
S31581704EB000D0FFE015AB1B78052B05D8152310AAFA
S31581704EC09B181B78052B04D9844825F04BFD012747
S31581704ED01EE63578012307000D9315AB1C7810AA51
S31581704EE013239B181B78AB4215D286E617AA6300EB
S31581704EF0D31829002200059807F090FC002807D066
S31581704F0022002900764825F02DFD012700230D9377
S31581704F1001342406240E152310AA9B181B780C9332
S31581704F20A342E3D20D9B002B06D101356D482D0628
S31581704F3025F018FD2D0ED0E715AB1B7811936A4BB2
S31581704F400B936A4B0A9300230793119B079A93429B
S31581704F502AD80C9B934227D3530017AA9E5A0A9B31
S31581704F6032001B8808930A9B08995B68604825F014
S31581704F70F9FC331201221A405E4B0F92109301D0C5
S31581704F805D4B1093B30901221A401292730B012261
S31581704F901A400023139209930B9B099A9B889A4214
S31581704FA00FD3504825F0DEFC079B013307930B9B8B
S31581704FB008330B930A9B08330A93079B062BC4D13C
S31581704FC0B3E7099B0C245C430B9B4C481B680E937F
S31581704FD01C196388A18899400B0033400E9309048C
S31581704FE0089B090C0E9A25F0BDFC089B6088002BE6
S31581704FF025D106281AD1812292013240404B402A0E
S3158170500005D0802189013F4B8A4200D03E4B019366
S31581705010139B00930D22129B06213C4825F0A2FC1E
S31581705020304825F09FFC099B0133B4E708282DD1C0
S315817050300100109B0F9A364825F094FCF0E7089B87
S315817050402188042B10D1002820D1A388314A33407E
S31581705050012B03D0304A022B00D0304A304800925F
S31581705060002225F07FFCDBE7089B052B0ED10028FB
S315817050700CD1A388274A3340012B03D0264A022BB1
S3158170508000D0264A009227480022EAE72188814289
S315817050900BD10100244825F065FC63880E99A268BE
S315817050A01941224825F05EFCBAE70200204825F0B6
S315817050B059FCF2E7380002221E4924F0B4FC071E1F
S315817050C000D023E5022D02D107F0DAFB95E5A068C1
S315817050D007F066FB91E5C046A64B7381A94B738138
S315817050E0EC4A73813280738120EE728140F37281D2
S315817050F0ED4B73811C4C7381174C7381214C738179
S31581705100FBC973814D4A7381514A7381344C738162
S31581705110634C7381544A73815F4A7381744A738114
S315817051207F4C73819E4C7381C04C7381CF4C7381DC
S31581705130C74C738112717381F7B5170001900D0099
S3158170514058680A2214491E000CF0D0FD331D013FA8
S315817051500093041E1DD04368BB421ADB012D02D118
S315817051608068002814D00D4E3368002B05DA12F052
S3158170517011FC002808DD00233360E468009B3A0047
S3158170518029000198A04703E005480AF031FD012006
S31581705190FEBD01204042FBE76CF9738184FA73810D
S315817051A0AC50738170B505000E0012F0A3FB041E1E
S315817051B005D12900084825F0D5FB200070BD002E49
S315817051C001D000234361200012F006FB434258410F
S315817051D040420440F1E7C0463A717381044B10B581
S315817051E018680121FFF7DEFF4342584110BDC04662
S315817051F084FA7381F0B595B0029200212C2209A8A8
S31581705200049329F0F5F9BB4B00211868FFF7CAFFA3
S3158170521001240690002805D0029B002B00DD59E100
S3158170522001246442200015B0F0BD049BAE009F1925
S31581705230B149386824F0EAFB041E57D16B1C079379
S31581705240079A029B04369B1A0393049B01009B1950
S315817052500C2209A8059329F0CBF9039BA34202DCA2
S31581705260079B1D19C3E0059BA5005E19A34930688C
S3158170527024F0CCFB071E11D1039AA31C9A42CFDD71
S3158170528001000A22706825F01DFC0A223900033458
S315817052900990B06825F016FC0A90DEE79849306867
S315817052A024F0B4FB0028DBD1039A631C9A42B7DDE4
S315817052B009AE337A012213433372059B04355D1926
S315817052C09049286824F0A2FB002805D1337A0222FE
S315817052D0134333720234C0E78B49286824F096FBF6
S315817052E000289DD1337A02229343F2E702228749BD
S315817052F0386824F098FB041E71D1386824F0B0FBAD
S3158170530003286CD13B689B781A00313A0592120654
S31581705310120E032A63D86A1C07920799029A303B48
S31581705320521A0392DD00049A09AB0436281D1818A7
S3158170533096192100082229F05BF9039B012B00DC69
S315817053406EE70A222100306825F0BCFB09AB5D1936
S3158170535068600125AF00F4196849206824F056FB0E
S3158170536000280FD1059B09AA0133DB00D3181A7A5D
S3158170537001210A436D181A72039B9D42EADB079BD2
S315817053805D1934E05E49206824F040FB0028F6D12F
S31581705390039A6B1C9A4200DC42E7059B02225C1CD5
S315817053A0E40009AB1C19237A04371343F719237266
S315817053B05449386824F02AFB002805D1237A0422BF
S315817053C0134323720235D7E74F49386824F01EFBA1
S315817053D0002800D024E7237A04229343F1E74C49CD
S315817053E0386824F013FB002860D101350190029B47
S315817053F09D4200DA19E7474809AD0AF0F9FB6B68F7
S31581705400002B6AD044480AF0F3FB444C0998220079
S31581705410C10D400224F0C6F841480AF0E9FB68687C
S315817054202200C10D400224F0BDF82B7ADA0706D529
S3158170543034499B0700D434493A4825F093FA0024BD
S315817054402F00EB68661C3100002B4AD0364825F058
S3158170545089FAF300FB18E8681B7AC10D334A40025A
S31581705460DB0700D42D4A24F09DF80134E4003C1901
S31581705470237A9A0707D5234A5B0700D4224A3100DB
S315817054802B4825F06FFA08353400042ED9D1019A4C
S315817054903900069811F0EAF9041E26D1019B022B78
S315817054A000D0BFE623480AF0A3FBBBE622493868E1
S315817054B024F0ACFA002803D101350123019396E7D4
S315817054C01E49386824F0A2FA002800D0A8E6013572
S315817054D00223F3E701250023F0E719480AF088FBD8
S315817054E0A3E7184825F03EFABFE717480AF080FB14
S315817054F0012497E684FA7381C94D7381CE4D738188
S31581705500D24D738199D0738160347381D84D738193
